:020000040800F2
:10000000A81200209D0100083B2D0008932900083C
:10001000392D0008110900083945000800000000CA
:10002000000000000000000000000000F32D0008A8
:10003000D509000800000000F12D0008F52D00088A
:10004000B7010008B7010008B7010008B7010008B0
:10005000B7010008B7010008B7010008B7010008A0
:10006000B7010008B7010008B7010008B701000890
:10007000B7010008B7010008B7010008B701000880
:10008000B7010008B7010008B7010008B701000870
:10009000B7010008B7010008B7010008B701000860
:1000A000B7010008B7010008B7010008B701000850
:1000B000B7010008B7010008B7010008B701000840
:1000C000B7010008B7010008B7010008B701000830
:1000D000B7010008B7010008B7010008B701000820
:1000E000B7010008B7010008B7010008B701000810
:1000F000B7010008B7010008B7010008B701000800
:10010000B7010008B7010008B7010008B7010008EF
:10011000B7010008B7010008B7010008B7010008DF
:1001200025090008B7010008B7010008B701000859
:10013000B7010008B7010008B7010008B7010008BF
:10014000B7010008B7010008B70100085D2D0008DD
:10015000B7010008B7010008B7010008B70100089F
:10016000B7010008B7010008B7010008B70100088F
:10017000B7010008B7010008B7010008000000003F
:10018000B7010008B7010008DFF80CD000F0A8FAAA
:1001900000480047A9450008A812002006488047EB
:1001A00006480047FEE7FEE7FEE7FEE7FEE7FEE75C
:1001B000FEE7FEE7FEE7FEE7A92E0008890100083A
:1001C00040EA01039B0703D009E008C9121F08C0D9
:1001D000042AFAD203E011F8013B00F8013B521E59
:1001E000F9D270472DE9FE4F804681EA0300C00F27
:1001F0000C46009021F0004123F00045B8EB0200CE
:10020000A94105D24046214690461C460B4602466F
:1002100023F00040104347D0270DC7F30A00C3F373
:100220000A510290401A019040286BDAC3F3130080
:1002300040F4801B0098924620B10023D2EB030AC1
:1002400063EB0B0B01985946C0F14002504600F099
:10025000B9F906460D4650465946019A00F0D1F9C3
:1002600010EB08006141002487EA115284EAE77329
:100270001A4340D0009A62B3019A012A4FEA07520A
:1002800015DC001B61EB02014FF0004202EA07524D
:10029000CDE90042001C41F5801132462B4600F0AA
:1002A000D1F903B0BDE8F08F40462146F9E7001BC5
:1002B00061EB0201001C41F5801300185B4120181E
:1002C000A2F5001747EB030140EAD570B6196D415E
:1002D00011E06D084FEA360645EAC0754FEA07524D
:1002E000001B61EB0201001C41F5801149084FEA37
:1002F00030000019514132462B4603B0BDE8F04FA3
:1003000000F091B90098012240000023D0EB0202D6
:1003100063EBE073009821464FEAE074B8EB00000D
:1003200061EB0401E9E783F000435BE781F0004102
:1003300058E72DE9FE4F81EA030404F0004421F060
:10034000004100944FF0000B23F0004350EA0104F9
:100350005ED052EA03045BD0C3F30A54C1F30A55DA
:100360002C44A4F2F3340194A0FB0254C1F3130112
:1003700041F48011C3F3130343F4801301FB0244DF
:1003800000FB034E840A970A44EA815447EA8357E4
:10039000A4FB076802958D0A05FB07854FEA932C9D
:1003A00004FB0C542705029D4FEA065847EA16370E
:1003B000B5EB08056EEB070C870E920E47EA811726
:1003C00042EA8312A7FB0201B6EB0B0164EB0004C7
:1003D0002B0D43EA0C335E1844EB1C50DA465146B1
:1003E000E7FB0201C5F313044FEA0B3343EA14534E
:1003F0004FEA0432019C43EA0603A4F10C04029480
:10040000009CCDE900B400F01DF903B0BDE8F08F09
:1004100000200146F9E72DE9F04D81EA030404F0DC
:10042000004B21F0004514464FF0000A23F0004134
:1004300050EA050220D054EA01021DD0C5F30A5744
:100440000246C5F31303C1F31300C1F30A5640F487
:10045000801543F48013A7EB0608101BD64608F25C
:10046000FD3873EB050002D308F1010801E0921892
:100470005B41B8F1000F03DA00200146BDE8F08DC2
:1004800000204FF48011064684460EE0171B73EBE4
:10049000050705D3121B63EB050306434CEA010C69
:1004A00049084FEA300092185B4150EA0107EDD14C
:1004B00052EA030012D082EA040083EA05010843ED
:1004C00005D0101BAB4106D20122002306E000221A
:1004D0004FF0004302E06FF0010253101AEB0600E8
:1004E0004CEB085110EB0A0041EB0B01BDE8F04D5D
:1004F00000F099B80EB5C10F80EAE0700844CA0751
:10050000002140F233438DE80E000A460B4600F00E
:1005100099F803B000BD0EB540F2334102910021BD
:10052000CDE900110A460B4600F08CF803B000BD7F
:10053000C1F30A5210B5C1F3130140F2FF3341F485
:1005400080119A4201DA002010BD40F233439A42F2
:10055000A2F2334203DC524200F043F810BD904057
:1005600010BD000030B5041E71F1000404DB4FF033
:100570000044404264EB0101141E73F1000405DBEA
:100580001C464FF00043524263EB04038B4208BF0A
:10059000824230BD30B5041E71F1000404DB4FF01F
:1005A0000044404264EB0101141E73F1000405DBBA
:1005B0001C464FF00043524263EB0403994208BFCC
:1005C000904230BD202A04DB203A00FA02F10020DC
:1005D00070479140C2F1200320FA03F31943904081
:1005E0007047202A04DB203A21FA02F000217047EC
:1005F00021FA02F3D040C2F120029140084319468B
:100600007047202A06DBCB17203A41FA02F043EA72
:10061000E07306E041FA02F3D040C2F120029140BB
:1006200008431946704710B5141E73F1000408DA28
:10063000401C41F1000192185B411A4301D120F0A6
:10064000010010BD2DE9F04D92469B4611B1B1FA63
:1006500081F202E0B0FA80F220329046FFF7B2FF5A
:1006600004460F4640EA0A0041EA0B0153465A4647
:10067000084313D0114653EA010019D0C8F14002D3
:100680005046FFF7AEFF05460E46504659464246D5
:10069000FFF798FF084305D0012004E020463946C3
:1006A000BDE8F08D0020054346EAE0762C43374351
:1006B0000A986305E40AA0EB08000022FD0A44EA58
:1006C00047540A3002D500200146E9E70105101918
:1006D0006941DDE9084500196941BDE8F04DA2E72F
:1006E000064C074D06E0E06840F0010394E807007F
:1006F00098471034AC42F6D3FFF74AFD0C4E000881
:100700002C4E000870B58C1810F8015B15F007032B
:1007100001D110F8013B2A1106D110F8012B03E09A
:1007200010F8016B01F8016B5B1EF9D12B0705D4A2
:100730000023521E0DD401F8013BFAE710F8013BEB
:10074000CB1A921C03E013F8015B01F8015B521E07
:10075000F9D5A142D8D3002070BD10B50146806BF9
:10076000026C12F0500F05D0806BC26CBDE81040D7
:1007700008461047016C41F40071016401688A6801
:1007800012F0405F17D18269AAB9CA6A12F4700FD9
:1007900002D08A6852050ED44A6822F020024A60CC
:1007A000016C21F480710164016CC90403D4016CF3
:1007B00041F00101016400F09BFA10BD10B5806B9F
:1007C00040210164416C41F00401416400F092FA5F
:1007D00010BD10B5806B00F08CFA10BD4A4910B501
:1007E000D1F8042322F44032C1F80423D1F80423C1
:1007F00043681A43C1F8042301684A6822F48072EE
:100800004A6001684A68036942EA03224A60016853
:100810004A6822F040724A6001684A6883681A4355
:100820004A6001688A6822F400628A6001688A6806
:10083000C3681A438A60816A6FF07062D1420168AE
:100840008A6822F070628A6001688A680CD0836AC4
:100850001A438A6001688A6822F040528A600168FF
:100860008A68C36A1A4301E022F040528A60016834
:100870008A6822F002028A6001688A68836942EA13
:1008800043028A60016A002901684A6815D042F46F
:1008900000624A6001684A6822F460424A60016866
:1008A0004B684FF46044426A94FAA4F4B4FA84F4B6
:1008B000521EA24013434B6002E022F400624A60E1
:1008C0000168CA6A22F47002CA620168CA6A838B2C
:1008D0000E4C04EB03531A43CA6201688A6822F47F
:1008E00000728A6001688A68036B42EA43228A6068
:1008F00001688A6822F480628A6001688A684069B7
:1009000042EA8020886010BD002001400000F0FF16
:10091000FEE7002070470020704710B504F0B8F9DA
:10092000002010BD014800F0CDBA000054050020A1
:1009300001681823CAB2103AB2FBF3F2054B6FF309
:100940000901032A9B5CC36500D9091D816508461E
:1009500070470000044E000810B5014600208B6966
:100960008A6A4FF0C07453B1B3F5005F15D072B10D
:10097000012A0CD0022A0AD0032A09D104E01AB1B4
:10098000012A06D0022A03D1C96AC90100D5012073
:1009900010BDC96AA142FAD010BD002AF7D0012AC1
:1009A000F2D0022AF3D0032AF3D010BD30B5046888
:1009B000256825F480252560046863608368402BE2
:1009C000036803D099600068C26030BD9A60006817
:1009D000C16030BD7047FEE7002229B101291FD058
:1009E000022920D04FF4407210490B6823F4407361
:1009F0000B600B6813430B600A6822F0F8020A6070
:100A00000A68F82393FAA3F3B3FA83F3984040F00B
:100A1000020002430A60086840F4803008607047B2
:100A20004FF48072E0E74FF40072DDE7103C0240C3
:100A3000064A136823F44073136013681360136845
:100A400043F001031360017070470000103C024046
:100A5000084910B50C6824F440740C600C6844F428
:100A600040740C600C6844F001040C600260436048
:100A700010BD0000103C0240074A136823F4407385
:100A80001360136843F480731360136843F0010329
:100A90001360018070470000103C0240074A136851
:100AA00023F440731360136843F4007313601368F6
:100AB00043F001031360016070470000103C0240E6
:100AC0001F490868C043C2061E4805D4C26942F0E7
:100AD0001002C26110220A600A68D243920605D44D
:100AE000C26942F00802C26120220A600A68D24349
:100AF000520605D4C26942F00402C26140220A6073
:100B00000A68D243120605D4C26942F00202C261E9
:100B100080220A600A68D243D20506D4C26942F034
:100B20000102C2614FF480720A600A68D2439207E0
:100B300005D4C26942F02002C261022008607047F9
:100B40000C3C0240880C002070B51349044600207C
:100B5000C86100F07DFC0646104D09E0601C07D01E
:100B600024B100F075FC801BA04201D9032070BDA8
:100B70002868C043C003F1D52868C00701D0012010
:100B8000286029684FF4F970884301D0002070BDB7
:100B9000FFF796FF012070BD880C00200C3C02403E
:100BA00078B50024009490F83C20012A19D0012245
:100BB00080F83C200A6807230568092A13D9EE68E3
:100BC0000A3A02EB420293409E43EE600B788A6839
:100BD0000A3B03EB43039A400368DD682A43DA606B
:100BE00010E0022078BD2E6902EB420293409E4342
:100BF0002E610A788B6802EB420293400268156905
:100C00002B4313614A681F23072A13D205686E6BB2
:100C1000521E02EB820293409E436E630B790A8858
:100C20005B1E92B203EB83039A4003685D6B2A4319
:100C30005A6327E005680D2A12D22E6BD21F02EBF1
:100C4000820293409E432E630B790A88DB1F92B287
:100C500003EB83039A4003681D6B2A431A6311E078
:100C6000EE6A0D3A02EB820293409E43EE620B79EC
:100C70000A880D3B92B203EB83039A400368DD6A56
:100C80002A43DA62174A0368934208D10B68122B91
:100C900005D1D2F8043343F48003C2F80433036867
:100CA00093421AD10B68102B01D0112B15D1D2F819
:100CB000043343F40003C2F80433096810290CD14B
:100CC00009490A4A0968B1FBF2F101EB81014900C7
:100CD00000E0491E00910029FBD180F83C40002033
:100CE00078BD0000002001400000002040420F00BD
:100CF00070477047704770B504004FF0000503D08F
:100D0000206C002610B107E0012070BD666484F8F5
:100D10003C60204600F01AF8206CC00610D4206C0D
:100D200020F4885040F0020020642046FFF756FD72
:100D30006664206C20F0020040F00100206400E0B6
:100D4000012584F83C60284670BD000070B5064659
:100D50000068184986B088422AD1174800250168E2
:100D600041F4807101600068694600F4807005906C
:100D7000FF2000900320CDE90105104800F082FA21
:100D8000104C0F48C4E900050015A560C4E90350E4
:100D9000800060618000A0618011C4E907052046E1
:100DA000656200F063F908B1FFF715FEB463A6634E
:100DB00006B070BD002001404438024000000240EF
:100DC0001064024054050020F8B50D460021044689
:100DD000009190F83C00012807D0012084F83C00E5
:100DE00020688368DB0702D011E00220F8BD836829
:100DF00043F0010383602D482D4B0068B0FBF3F0F6
:100E000000EB400000E0401E00900028FBD120686D
:100E10008368DB0748D0236C40F20166B34343F498
:100E2000807323644068400505D5206C20F4005091
:100E300040F480502064206CC00404D5606C20F025
:100E40000600606400E0616484F83C10A16B1948FE
:100E5000C863A16B18480864A16B1848C86421686E
:100E60006FF0220008602068416841F080614160B5
:100E70002068816841F480718160216813462A46A8
:100E80004C31A06B00F05AF90D49D1F80403C006AB
:100E9000206801D0884207D1816811F0405F03D1FA
:100EA000816841F0804181600020F8BD0000002091
:100EB00040420F005B070008D3070008BD07000889
:100EC000002001402DE9F84304464FF00008CDF81A
:100ED000008064484FF41651A56D0068B0FBF1F72F
:100EE0002E6894F85C10082000FA01F131420FD00E
:100EF00021680A6852070BD50A6822F004020A60CA
:100F000094F85C108840A860606D40F00100606556
:100F100094F85C1054488840304208D021684969F0
:100F2000090604D5A860606D40F0020060654E4877
:100F300094F85C10C01C8840304208D021680968D1
:100F4000890704D5A860606D40F00400606594F8DE
:100F50005C1010208840304218D0216809680907C9
:100F600014D5A86020680168490304D5006800030F
:100F700008D5A16C07E00168C90503D4016821F018
:100F800008010160216C09B12046884794F85C1083
:100F90002020884030424FF0010631D02168096896
:100FA000C9062DD5A86094F8350005282068016889
:100FB00006D0490347D5006800031DD4616C1CE0CE
:100FC00021F0160101602068416921F08001416132
:100FD000206C08B9A06C20B12068016821F00801DC
:100FE000016094F85C103F208840A86084F8348049
:100FF00084F83560216D1FE0E16B09B12046884718
:10100000606D00282BD0606DC00714D0052084F8D7
:1010100035002068016821F0010101600098401C42
:101020000090B84203D820680068C007F6D184F861
:10103000348084F83560E16C002910D001B020467E
:10104000BDE8F04308470168C905D5D4016821F01F
:101050001001016084F8348084F83560CCE7BDE885
:10106000F883000000000020010080002DE9F0411D
:10107000044600F0EDF906465CB1002584F83450D2
:10108000022084F835002068016821F00101016028
:101090000DE00120BDE8F08100F0DAF9801B0528A1
:1010A00005D920206065032084F83500F2E7206828
:1010B0000068C007F0D1226811681F480140D4E9D8
:1010C00001031843D4E903363343184363691843D3
:1010D000A3691843E3691843236A18430843616A04
:1010E000042903D1D4E90B13194308431060206885
:1010F0004069666A20F0070130460E430127042844
:101100000AD1A06A06432046FFF726FC20B1402002
:10111000606584F83570BCE7206846612046FFF7BB
:1011200007FC94F85C203F2191408160656584F85C
:1011300035700020AEE700003F8010F02DE9F0414F
:101140000446866D90F83400002501280DD001205A
:1011500084F8340094F835700020012F07D084F80B
:10116000340002252846BDE8F0810220FBE7022773
:1011700084F8357060652046FFF718FC94F85C1021
:101180003F208840B0602068016841F0160101608E
:101190002068416941F080014161206C20B12068E4
:1011A000016841F0080101602068016841F0010117
:1011B0000160D7E731B500F04BF9044600F048F97B
:1011C0000099001B8842F9D338BD0000034801682C
:1011D00041F000410160002070470000103C0240D7
:1011E0002DE9F0471B4E05461446307E1F468946C2
:1011F000012808D0012030764CF250384046FFF7E5
:10120000A3FC18B114E00220BDE8F0879DB1012DC8
:1012100016D0022D19D022463B464846FFF718FC4F
:101220004046FFF791FC0C490A6822F001020A606F
:1012300000213176E8E7E1B24846FFF7F9FBEFE736
:10124000A1B24846FFF718FCEAE721464846FFF7F7
:1012500025FCE5E7880C0020103C024006480068A9
:10126000002807DA044805490C3801600449016088
:101270000020704701207047103C02402301674561
:10128000AB89EFCD2DE9F84FDFF888B100224FF0A0
:1012900001084FF0030A4FF00F090BF1040E00BFD5
:1012A0000B6808FA02F42340A3426ED14D68022D68
:1012B00001D0122D0ED1D50800EB850CDCF82050A2
:1012C0005607F70E09FA07F6B5430E69BE402E43DE
:1012D000CCF82060066855000F790AFA05FC07F083
:1012E000030726EA0C06AF40374307604E68012E1D
:1012F00005D0022E03D0112E01D0122E0ED18668F9
:10130000CF6826EA0C06AF40374387604668A6439D
:101310000C79C4F30014944034434460C4688E686C
:1013200024EA0C04AE402643C6604C68E4006AD54B
:10133000394C256845F480452560246822F0030572
:1013400004F480440094354C2E19D6F808489507CB
:101350002F0F09FA07F5AC43314DA84201D1002502
:1013600029E0304DA84201D1012524E02E4DA842AC
:1013700001D102251FE02D4DA84201D103251AE01D
:101380002B4DA84202D1042515E03CE0294DA8428E
:1013900001D105250FE0284DA84201D106250AE01C
:1013A000264DA84201D1072505E0254DA84201D1CF
:1013B000082500E00925BD402543C6F80858DBF89C
:1013C00000405D464E689C43F60300D51C432C60EC
:1013D000DEF8004075464E689C43B60300D51C43BA
:1013E0002C600C4D08352C684E689C43F60200D5E5
:1013F0001C432C60074D0C352C684E689C43B6028C
:1014000000D51C432C60521C102AFFF449AFBDE8E4
:10141000F88F0000003C0140443802400030014099
:10142000000002400004024000080240000C02409C
:10143000001002400014024000180240001C02404C
:10144000002002400069084000D0012070470000E1
:1014500001480068704700003001002070B50400AA
:1014600004D094F83D00002510B106E0012070BDC5
:1014700084F83C50204600F075F8242084F83D00A4
:101480002068016821F00101016000F03DFE334950
:101490002268B0FBF1F15160314A6368934206D98A
:1014A0004FF4967359434FF47A73B1FBF3F1236809
:1014B000491C1962616891420BD84900B0FBF1F2F6
:1014C000C2F30B02042A01D2042019E0B0FBF1F0B0
:1014D00016E0A3689BB301EBC10202EB0112B0FB63
:1014E000F2F242F48042120530D04BB301EBC1025C
:1014F00002EB0111B0FBF1F040F4804040F40040F9
:101500002168C861D4E90701084321680860D4E96B
:101510000310084321688860D4E905010843216865
:10152000C8602068016841F0010101602564202045
:1015300084F83D00256384F83E50002070BD00E033
:1015400006E001EB4102B0FBF2F2CCE70120D7E765
:1015500001EB4101B0FBF1F0D0E7000040420F0089
:10156000A0860100F0B5164F016812220123032561
:1015700004261448144C87B0B9420DD1C0218DE81F
:101580006E006946FFF77EFE206840F40010206080
:10159000206800F4001010E00C4FB9420ED14FF457
:1015A00040618DE86E006946FFF76CFE206840F4EC
:1015B00080002060206800F48000059007B0F0BD36
:1015C00000540040000402404038024000580040EF
:1015D00002480168491C016070470000300100208A
:1015E0000B4810B5016841F400710160016841F4D5
:1015F00080610160016841F480710160032000F0A6
:1016000075F8002000F006F800F018F8002010BD72
:10161000003C024010B5044607484FF47A71006858
:10162000B0FBF1F000F0C1FF00222146501E00F097
:101630003DF8002010BD00000000002010B5032080
:1016400000F054F8002211466FF00B0000F02EF865
:10165000002211466FF00A0000F028F8002211461F
:101660006FF0090000F022F800221146501F00F030
:101670001DF800221146101F00F018F80022114634
:10168000901E00F013F80022BDE810401146501ED5
:1016900000F00CB800F01F020121914040098000C9
:1016A00000F1E020C0F8001170470000F0B40E4BCC
:1016B0001B680C46C3F30223C3F10705042D00D9B0
:1016C0000425191D072901D2002300E0DB1E012695
:1016D00006FA05F1491E214099409E40761E1640AB
:1016E0003143F0BC01F02ABB0CED00E0064900F0EC
:1016F000070208684FF6FF03184040EA0220034A39
:1017000010430860704700000CED00E00000FA058F
:101710000068416200207047F0B500680023446A09
:1017200031B1856A4FF4827604EB15444D1E0AE010
:1017300044EA024181620FE006EB8307C7595B1C54
:1017400004EB1744DBB2AB42F6D34FF4807303EBE8
:10175000810144EA024242500020F0BDD0F8B403B7
:1017600002F00FB8C1EBC10200EB8202D0F8B40363
:10177000526C01F07CBFC1EBC10200EB8202D0F8D9
:10178000B403D2F8E82101F0C7BFD0F8B40301F0E8
:10179000FABF10B504460A460B0601F07F00C0EB05
:1017A000C00104EB810101D5383101E001F5EE7192
:1017B0000870D009487094F88003012809D00120EE
:1017C00084F88003206802F0D3FA002084F88003B4
:1017D00010BD022010BD70B50A460446090602F08D
:1017E0007F0005D5C0EBC00104EB8101383105E075
:1017F000C2EBC20104EB810101F5EE7100258D7091
:101800000870D009487094F88003012809D001209D
:1018100084F88003206802F062FC84F88053002082
:1018200070BD022070BD70B504460D460E0601F075
:101830007F00C0EBC00104EB810101D5383101E02C
:1018400001F5EE71ED0908704D708A60CB7000D023
:10185000C8800025022B00D10D7194F88003012867
:1018600009D0012084F88003206802F0D9F92846C5
:1018700084F8805370BD022070BD000070B504462E
:101880000E4601F07F00C0EBC00104EB8101002592
:10189000C1F8E821C1E97C3581F8DD5181F8DC012E
:1018A000206901F5EE71012800D10A6194F88003E6
:1018B00001280DD0012084F880037006227C206866
:1018C00008D002F06DFC00BF84F88053002070BD8A
:1018D000022070BD02F044FBF6E770B50D460446E9
:1018E000090605F07F0005D5C0EBC00104EB8101BE
:1018F000383105E0C5EBC50104EB810101F5EE715E
:1019000001228A700870E809487094F88003012861
:1019100007D084F88023206802F013FC680602D008
:1019200007E0022070BD217C04F56172206802F09E
:10193000B7FB002084F8800370BD70B504460E46E6
:1019400001F07F00C0EBC00104EB810100254A6477
:10195000C1E91335012381F8393001F8380F2069C6
:10196000012800D10A6194F8800301280BD084F883
:1019700080337006227C206807D002F011FC84F8C6
:101980008053002070BD022070BD02F0E9FAF6E736
:101990002DE9F84F044600680026054602F054FD84
:1019A000002875D1206802F078FD002870D02068EA
:1019B00002F073FD800704D52068416901F002013F
:1019C0004161206802F069FD010304F561704FF088
:1019D000010B4FF0000A00904DD5206802F03FFD4A
:1019E000074646E0F80742D0F1B2206802F04DFD0C
:1019F0008046C00728D005EB4611C1F808BB206916
:101A0000012811D1C6EBC60004EB8000D1F8101BF1
:101A1000D0F8E421C1F31201511AC0F8F411D0F842
:101A2000E8111144C0F8E811F1B22046FFF7A3FE17
:101A30002069012808D13EB9D4F8F00120B9206806
:101A40000121009A02F02CFB5FEA087007D52046BE
:101A500000F062FA05EB46110820C1F8080B5FEAB6
:101A6000C86004D505EB46111020C1F8080B7F08AB
:101A7000761C002FB6D1206802F00FFD40034FF016
:101A800040095ED5206802F0E3FC0746002656E0D8
:101A90007BE1F80751D0F1B2206802F0E7FC804604
:101AA000C00724D0D5F834180BFA06F08143C5F8E6
:101AB000341805EB4610C0F808B92069012807D191
:101AC000C6EBC60004EB8000D0E91021114441644C
:101AD000F1B22046FFF746FE2069012807D136B94A
:101AE000E06C20B920680121009A02F0D9FA5FEA7F
:101AF000087004D505EB46110820C1F808095FEA13
:101B0000C86004D505EB46111020C1F808095FEA4A
:101B1000486003D505EB4611C1F808995FEA887063
:101B200004D505EB46110220C1F808095FEA0860F8
:101B300003D53146204601F017F97F08761C002FA7
:101B4000A7D1206802F0A9FC00280DDAD5F8040816
:101B500020F00100C5F80408204600F0C3F9206811
:101B6000416901F000414161206802F096FC0005E6
:101B70000BD5D5F80808C00702D0204600F0E8F9D8
:101B80002068416901F400614161206802F085FC30
:101B9000C0044CD5D5F8040820F00100C5F80408AD
:101BA0000021206802F020FC0020FF2107E000BF98
:101BB00005EB4012C2F80819C2F8081B401C626805
:101BC0008242F5D84FF0FF30C5F81808D5F81C0848
:101BD00040F00110C5F81C08206B60B1D5F88408EE
:101BE00040F00B00C5F88408D5F8440840F00B001D
:101BF000C5F844080BE0D5F8140840F00B00C5F810
:101C00001408D5F8100840F00B00C5F81008D5F8F6
:101C1000000820F4FE60C5F80008217C2068009AC6
:101C200002F03EFA2068416901F480514161206868
:101C300002F033FC80041CD5206802F031F82068E3
:101C4000C16821F47051C160206802F0DFFB58B315
:101C50000320C4F81490E0602068C16841F4C051CA
:101C6000C160204600F02EF92068416901F400515E
:101C70004161206802F011FCC00640D520688169EE
:101C800021F010018161D5F8208008F00F00C0EB31
:101C9000C00004EB8007C8F3434007F5EE77022845
:101CA0000CD006281CD025E04FF40070C4F80CA01E
:101CB00060612068C16841F41051D1E747F6F071C6
:101CC00018EA010F16D0C8F30A1290462846F968A0
:101CD00002F0E7FBF8684044F860B869404408E067
:101CE00008222846009902F0DCFBB969C8F30A1003
:101CF0000844B8612068816941F010018161206861
:101D000002F0CBFB000707D5204600F0EFF8206873
:101D1000416901F008014161206802F0BEFBC00288
:101D200008D5F1B2204600F032F82068416901F48C
:101D300080114161206802F0B0FB800208D5F1B249
:101D4000204600F028F82068416901F40011416143
:101D5000206802F0A2FB400007D52046FFF7FEFCFA
:101D60002068416901F080414161206802F095FBE3
:101D700040070AD520684568680702D52046FFF766
:101D800004FD2068416829434160BDE8F88FD0F820
:101D9000B40301F043BDD0F8B40301F041BD00002D
:101DA000F0B58BB004004FF0000556D0032084F846
:101DB0008103204600F054F8206802F0CBF804F1CB
:101DC000100128220F466846FEF7FAF994E80F0042
:101DD00001F080FF0021206802F073FB0126002043
:101DE000C5EBC50104EB810181F8396001F8385F6A
:101DF000CD80C8708860C8606D1C48610F2DEFD31E
:101E000000214FF4827300BFC1EBC10204EB8202D8
:101E100003EB810582F8DD0182F8DC11D18782F8BD
:101E2000DF01C2F8E401C2F8E801C2F8F00122685B
:101E30005051491C0F29E7D3282239466846FEF73E
:101E4000BFF994E80F0001F0E3FF84F88163206894
:101E500001F0D1FF00200BB0F0BD0120FBE7000036
:101E600000B5006887B0B0F1A04F25D14FF4C05045
:101E700000900220019000200290032003900A208D
:101E8000049069460D48FFF7FDF90D48016841F0DF
:101E9000800101600A481030016841F4804101600E
:101EA0000068002200F48040059011464320FFF7AF
:101EB000FDFB4320FFF7EEFB07B000BD0000024032
:101EC0003438024010B50446C068012100B9002131
:101ED000D4F8B40301F0E8FCD4F8B403BDE8104032
:101EE00001F0B1BCD0F8B40301F0CCBCD0F8B4031D
:101EF00001F0CEBC10B5044690F88003012809D04B
:101F0000012084F88003206802F0F1FA002084F8B0
:101F1000800310BD022010BDD0F8B42300F561711C
:101F2000104601F0CBBC10B5044690F880030128A0
:101F30000CD0012084F88003206801F050FF206855
:101F400002F03CFA002084F8800310BD022010BD8E
:101F500010B50446D0F8B40301F0EBFC2068D0F8CB
:101F6000001E41F00101C0F8001E206A002804D0C4
:101F70000248016841F00601016010BD10ED00E06B
:101F80002DE9F047DFF8649105460F46D9F80000C7
:101F900000F00F01F8B28046B94208D2014689F834
:101FA0000010D9F8000000F00F00B84274D1287872
:101FB0004F4C800705D52068A96820F0F000084341
:101FC00020602878C00759D0494968680839012835
:101FD0001AD002281BD0032819D0096889070029C4
:101FE0005ADA216821F0030101432160FFF730FA3A
:101FF0006968064641F28830012911D002291DD0B6
:102000000329824627D035E009688903E7E7096894
:102010008901E4E7FFF71CFA811B514501D926E04D
:1020200082462068C0F381000128F3D126E000BF7A
:10203000FFF70EFA811B514501D918E0824620684E
:10204000C0F381000228F3D118E000BFFFF700FAC7
:10205000811B51450BD82068C0F381000328F5D1BE
:102060000CE000BFFFF7F4F9811B514502D90320B2
:10207000BDE8F087206810F00C0FF3D1D9F80010FC
:10208000484601F00F01B94208D980F80080006885
:1020900000F00F00B84201D00120E9E7287840079E
:1020A00005D52068E96820F4E050084320602878CE
:1020B000000706D52068296920F4604040EAC10085
:1020C000206000F039F82168F02292FAA2F201F0C3
:1020D000F001B2FA82F2D140064A515CC84006498A
:1020E00008600020FFF796FA0020C1E7003C02409C
:1020F00008380240F44D0008000000200148006844
:10210000704700000000002008480949006809687D
:102110004FF4E05292FAA2F201F4E051B2FA82F2E4
:10212000D140044A515CC8407047000000000020C4
:1021300008380240F44D000830B51948006810F026
:102140000C01184812D0441004290ED008290DD1D2
:102150001349091F0A6802F03F030A68550247F64F
:10216000C07204D5B4FBF3F003E0204630BDB0FBF1
:10217000F3F00B680968134092FAA2F2B2FA82F205
:10218000D34058434FF4403292FAA2F201F4403166
:10219000B2FA82F2D140491C4900B0FBF1F030BDE7
:1021A000083802400024F4002DE9F84F0446DFF817
:1021B000CC820078A8F1040BC007ABF1040537D03E
:1021C000D8F800104046C1F38101012908D0006809
:1021D000C0F3810002280AD1DBF80000400206D5D6
:1021E0002868800324D56068002878D020E0A349BF
:1021F0002079891F0870606868B1FFF729F90646E1
:1022000005E000BFFFF724F9801B642868D8286820
:102210008003F7D50CE0FFF71BF9064605E000BF89
:10222000FFF716F9801B6428F0D828688003F7D4DC
:102230002078934E80074FF0010A4FF0000742D5F7
:10224000D8F80010404611F00C0F08D00068C0F319
:10225000810002280AD1DBF80000400206D4286879
:10226000800714D5E068012839D110E0E068D8B1C2
:10227000C6F800A0FFF7ECF8814605E0FFF7E8F8A4
:10228000A0EB09000228C1D828688007F6D5286885
:10229000F82292FAA2F22169B2FA82F220F0F80052
:1022A0009140084328600EE03760FFF7D1F881467F
:1022B00006E000BFFFF7CCF8A0EB090002280FD81A
:1022C00028688007F6D42078000728D56D48616912
:1022D000A1B1C0F800A0FFF7BBF8814608E0CAE052
:1022E00079E000BFFFF7B4F8A0EB0900022872D82C
:1022F00062486C3000688007F4D510E00760FFF793
:10230000A7F8814606E000BFFFF7A2F8A0EB09009E
:10231000022860D859486C3000688007F4D42078CF
:10232000400749D555483830016841F08051016077
:10233000006800F0805000905348016841F48071BB
:102340000160FFF785F8814606E000BFFFF780F8DF
:10235000A0EB090002283ED84B480068C005F5D51F
:10236000DFF81891207A09F1680989F80000A0685F
:1023700088B1FFF76DF8009008E000BFFFF768F83C
:102380000099411A41F2883081426CD8D9F8000096
:102390008007F3D510E0FFF75BF8009008E000BF7E
:1023A000FFF756F80099411A41F2883081425AD815
:1023B000D9F800008007F3D4A069E0B3D8F8001082
:1023C000C1F38101022956D00228376604D0FFF7F5
:1023D0003FF804464AE046E0FFF73AF8074604E0D3
:1023E000FFF736F8C01B02283DD828688001F7D4D3
:1023F000D4E90701084347F6C07292FAA2F2616A73
:10240000B2FA82F29140A26A4FF0FF3303EB52021C
:102410004FF4403393FAA3F3B3FA83F39A40114392
:1024200008434FF0706292FAA2F2E16AB2FA82F2C5
:102430009140084300E01CE0CBF80000C6F860A023
:10244000FFF706F8044604E0FFF702F8001B022835
:1024500009D828688001F7D50BE000BFFEF7F8FF28
:10246000001B022802D90320BDE8F88F28688001EC
:10247000F4D40020F8E70120F6E700000838024015
:1024800000004742800E47420070004070B50400D3
:1024900005D00025A56294F8510010B106E0012096
:1024A00070BD84F85050204600F030F8022084F8C7
:1024B00051002068016821F040010160D4E9010168
:1024C0000843D4E903121143084361690843218B8F
:1024D00001F400710843E1690843216A0843A16AD5
:1024E000084321680860A069042101EA1040616A7C
:1024F0000843216848602068C16921F40061C16116
:102500006565012084F85100002070BD10B51B4C9A
:10251000016800200222032386B0A14212D118498B
:102520000C6844F480540C60096801F480510591F2
:1025300038210091CDE901200520CDE9033069461D
:10254000104816E0104CA14215D10D49091F0C6826
:1025500044F400440C60096801F4004105914FF413
:10256000E0510091CDE901200620CDE90330694614
:102570000648FEF787FE06B010BD0000003001409F
:102580004438024000040240003C00400008024081
:102590004FF0E0210428086903D020F0040008610E
:1025A000704740F00400FAE7704710B5401EB0F1E4
:1025B000807F01D3012010BD4FF0E02460610F2126
:1025C000601700F0BBFB0020A06107202061002005
:1025D00010BD10B5FFF7E8FF10BD30B590F83820FA
:1025E000012A20D0012280F83820022380F83930D7
:1025F00003685C6824F070045C6003685C680D68C4
:102600002C435C6003689C6824F080049C60036831
:102610009C6849680C439C6080F83920002180F850
:102620003810084630BD022030BD10B5040003D07C
:1026300094F8390010B107E0012010BD002084F8A3
:102640003800204600F00CF8022084F83900211DE3
:10265000206800F053FC012084F83900002010BDF0
:1026600008B50C4A01680C48914207D1016841F055
:1026700002010160006800F0020009E0074A91428F
:1026800007D1016841F004010160006800F0040016
:10269000009008BD0004004040380240000800409F
:1026A00070B5044690F83800012817D0012584F849
:1026B0003850022084F839002068826822F07702BE
:1026C00022F47F4282600868502837D00DDC202831
:1026D00059D005DC88B3102841D151E0022070BDEB
:1026E000302853D040283AD13FE060282ED07028BF
:1026F0000BD0B0F5805F03D0B0F5005F2FD110E0B4
:102700002068816821F0070115E0CB68D1E901213B
:10271000206800F053FC2168886840F077008860EA
:102720001DE0CB68D1E90121206800F047FC20685A
:10273000816841F48041816011E01EE0CA68496807
:10274000206800F003FD5021206806E0CA6849684F
:10275000206800F00CFD6021206800F039FC84F84E
:102760003950002084F8380070BDCA684968206874
:1027700000F0ECFC40212068EFE700212068ECE746
:1027800010212068E9E720212068E6E73021206851
:10279000E3E7000030B5006813490024022585B046
:1027A000884210D103200090CDE9015469460F48BA
:1027B000CDE90345FEF766FDC0200090CDE9015448
:1027C00069460B4809E00B4988420AD14FF4704032
:1027D0000090CDE9015408486946CDE90345FEF76C
:1027E00051FD05B030BD000000040040000402406F
:1027F0000008024000080040000C024070B504468A
:1028000090F8380001280DD0012584F838500220B6
:1028100084F8390042B1042A0AD0082A0CD00C2AC4
:1028200011D10DE0022070BD206800F0D9FB0AE054
:10283000206800F001FC06E0206800F02FFC02E0B8
:10284000206800F05BFC84F83950002084F83800E0
:1028500070BD10B5040003D094F8390010B107E042
:10286000012010BD002084F83800204600F00CF84C
:10287000022084F83900211D206800F03FFB012070
:1028800084F83900002010BD704770B5044690F8F8
:1028900038000D4601280DD0012684F8386002204A
:1028A00084F8390042B1042A18D0082A2AD00C2A08
:1028B0004DD139E0022070BD206800F091FB206806
:1028C000816941F0080181612068816921F004017A
:1028D0008161206881692A69114311E0206800F054
:1028E000ABFB2068816941F40061816120688169E6
:1028F00021F480618161206881692A6941EA0221AD
:10290000816124E0206800F0C9FB2068C16941F0C2
:102910000801C1612068C16921F00401C16120681A
:10292000C1692A69114311E0206800F0E7FB2068C3
:10293000C16941F40061C1612068C16921F480610D
:10294000C1612068C1692A6941EA0221C16184F834
:102950003960002084F8380070BD10B5040003D041
:1029600094F8390010B107E0012010BD002084F870
:102970003800204600F00CF8022084F83900211DB0
:10298000206800F0BBFA012084F83900002010BD57
:102990007047FEE77FB531482F49002501604FF4AD
:1029A0008031416005620124C56208260461C0E9E6
:1029B000064609020463C0E902154561FEF79BF96A
:1029C00000B1FEE7CDE9005407256946234802958A
:1029D000FEF7E6F800B1FEE70094022469461F48BE
:1029E0000194FEF7DDF800B1FEE700940324694688
:1029F0001A480194FEF7D4F800B1FEE700940424CD
:102A0000694616480194FEF7CBF800B1FEE7009442
:102A10000524694611480194FEF7C2F800B1FEE7AB
:102A20000094062469460D480194FEF7B9F800B1F8
:102A3000FEE769460948CDE90045FEF7B1F800B167
:102A4000FEE7CDE9005669460448FEF7A9F80028DC
:102A500000D0FEE77FBD0000002001403C030020C5
:102A600030B52F4887B00024016841F010010160A3
:102A7000016801F010010591016841F080010160D9
:102A8000016801F080010591016841F001010160D8
:102A9000016801F001010591016841F00401016044
:102AA000016801F004010591016841F00201016033
:102AB000016801F002010591016841F0080101601F
:102AC0000068022500F0080005904FF6BF708DE801
:102AD000310069461348FEF7D5FB4FF44C708DE882
:102AE000310069461048FEF7CDFB4FF204308DE807
:102AF000310069460D48FEF7C5FB40F67F708DE852
:102B0000310069460A48FEF7BDFB4FF4E0608DE8EE
:102B1000310069460748FEF7B5FB07B030BD00003D
:102B20003038024000100240000802400004024019
:102B3000000C0240000002400E4810B50C49016034
:102B40004FF48271416000218160C1604FF40072D6
:102B50000161C0E90512C1610162416281620A211D
:102B6000C162FFF793FC002800D0FEE710BD000013
:102B7000003001402C0400200E4810B50C490160C3
:102B80004FF48271416000218160C1604FF4007296
:102B90000161C0E90512C1610162416281620A21DD
:102BA000C162FFF773FC002800D0FEE710BD0000F3
:102BB000003C00408404002010B525488EB0234915
:102BC0000024C0E900148460C4600461FFF72DFD97
:102BD00000B1FEE74FF48050079007A91C48FFF7AB
:102BE0005FFD00B1FEE71A48FFF7B7FE00B1FEE750
:102BF0000B940BA916480C94FFF7EFFC00B1FEE70D
:102C00006020CDE900040294002269461048049433
:102C1000FFF73BFE00B1FEE7042269460C48FFF7D0
:102C200034FE00B1FEE7082269460948FFF72DFE91
:102C300000B1FEE70C2269460548FFF726FE00B109
:102C4000FEE70348FFF7A6FD0EB010BD00040040EC
:102C5000DC04002030B529488DB027490024C0E9A4
:102C600000148460C4600461FFF7DFFC00B1FEE77C
:102C70004FF48050079007A92048FFF711FD00B1DD
:102C8000FEE71E48FFF769FE00B1FEE71B48FFF7AD
:102C9000E0FD00B1FEE70B940BA918480C94FFF778
:102CA0009CFC00B1FEE76025CDE9005402940022AF
:102CB000694612480494FFF7E8FD00B1FEE70422DC
:102CC00069460E480094FFF799FD00B1FEE708221F
:102CD00069460A480095FFF7D8FD00B1FEE70C22CF
:102CE00069460648FFF7D1FD00B1FEE70348FFF74C
:102CF00051FD0DB030BD0000000800401805002057
:102D000010B500220849094800F08EFC0849074820
:102D100000F033FE0749054800F0AFFABDE8104067
:102D2000024800F077BE0000040000206C0900207B
:102D3000B000002090000020FEE770470907090E50
:102D4000002806DA00F00F0000F1E02080F8141DE2
:102D5000704700F1E02080F8001470470148FEF74A
:102D600017BE0000B40500202DE9F84F0F46C1EB57
:102D7000C70100EB810582460668D5E91301441AB4
:102D8000286C3835A04200D20446E01C4FEA900877
:102D900006EB471916E0441AA868A04200D2044680
:102DA000E01C4FEA90089AF810000090A3B2FAB223
:102DB0003046E96801F0ACFBE8682044E860A869A7
:102DC0002044A861D9F8180980B2404505D9D5E951
:102DD0000501814201D20028DDD134B90120D6F8A5
:102DE0003418B8408143C6F834180020BDE8F88F85
:102DF0007047704710B501F0BFFFFEF7E9FBBDE873
:102E00001040FFF7E6BB000030B5254893B0002521
:102E1000016841F080510160006800F0805011901D
:102E20002048016841F4804101600068022400F4F8
:102E3000804011900120009001908005CDE906406E
:102E4000082008904FF4A870CDE9090407200B90E2
:102E50006846FFF7A9F900B1FEE70CA90F2081E849
:102E600031004FF4A0500F904FF480501090052186
:102E70000CA8FFF785F800B1FEE7FFF73FF94FF424
:102E80007A71B0FBF1F0FFF790FB0420FFF780FBB5
:102E900000221146501EFEF709FC13B030BD0000A1
:102EA00040380240007000401048016841F4700151
:102EB00001600F48016841F0010101600C4A0021E6
:102EC0000832116002680B4B1A400260031D0A4A67
:102ED0001A60026822F48022026005480C3001600A
:102EE00002495806803908607047000088ED00E00C
:102EF00000380240FFFFF6FE10300024F0B50268F3
:102F0000234B244D244E254F254C4FF0804C9842A6
:102F100009D0604507D0A84205D0B04203D0B842DE
:102F200001D0A04204D122F0700E4A6842EA0E029B
:102F300098421BD0604519D0A84217D0B04215D096
:102F4000B84213D0A04211D0164DA8420ED0164D53
:102F5000A8420BD0154DA84208D0154DA84205D067
:102F6000144DA84202D0144DA84203D122F440755A
:102F7000CA682A4302608A68C2620A68826298420A
:102F800001D0A04201D10969016301214161F0BD75
:102F9000000001400004004000080040000C004018
:102FA000000401400040014000440140004801404D
:102FB00000180040001C00400020004010B584684C
:102FC00042EA032224F47F440A432243826010BD74
:102FD000826822F070020A4342F007018160704764
:102FE00030B5026A22F001020262026A4368846913
:102FF0000D6824F07304254322F002048A682243FA
:103000000B4CA04202D00B4CA0420BD122F0080482
:10301000CA6823F4407322434C6922F004021C4323
:103020008B6923434360856149684163026230BD17
:10303000000001400004014030B5026A22F0100295
:103040000262026A436884690D6824F4E64444EA33
:1030500005248D6822F0200242EA05120D4DA84297
:1030600002D00D4DA8420ED1CD6822F0800242EA76
:1030700005124D6923F4406343EA85038D6922F00C
:10308000400243EA850343608461496881630262C8
:1030900030BD0000000001400004014030B5026A6C
:1030A00022F480720262036A4268C46923F40073E6
:1030B00024F073050C682C438D6843EA05230D4DFD
:1030C000A84202D00C4DA8420ED1CD6823F4006373
:1030D00043EA05234D6922F4405242EA05128D6904
:1030E00023F4806342EA05124260C4614968C16307
:1030F000036230BD000001400004014030B5026AA7
:1031000022F480520262046A4268C3690D6823F4A3
:10311000E64343EA05238D6824F4005444EA053469
:10312000084DA84202D0084DA84204D14D6922F4AE
:10313000804242EA85124260C361496801640462C8
:1031400030BD0000000001400004014010B5036ADA
:10315000046A24F001040462846924F0F00444EA5F
:10316000021423F00A020A438461026210BD10B502
:10317000036A23F0100303628369046A23F4704333
:1031800043EA023224F0A00343EA011182610162A2
:1031900010BDD0F81802002101750846704770B5BF
:1031A0000546D0F81842D5F81C226178D2682078FC
:1031B0009047022322460121284600F03DFB0020D3
:1031C00070BD10B50446812100F04AFA0121204665
:1031D00000F046FAD4F8180250B1D4F81C0204F5F5
:1031E000067480688047206801F0B6F900202060EE
:1031F000002010BD10B5D0F818422169012908D16E
:10320000D0F81C0223786178C268184690470020E5
:103210002061002010BD0000292101800048704776
:10322000EC0000200A2101800048704724010020A2
:1032300070B50646002516230322812100F0F2FA1C
:10324000022303220121304600F0ECFA182001F09D
:10325000FFF9C6F8180270B1044600202075D6F8B0
:103260001C0240688047022322460121304600F0BC
:10327000E3FA284670BD0125FBE70246022000293B
:1032800002D00020C2F81C12704710B5134690F807
:10329000FC41D0F81822032C07D1147D2CB901244D
:1032A00014750A46812100F04DFB002010BD00007E
:1032B00070B500220D78D0F81832144615F060056C
:1032C00025D0202D4BD14A78921E0A2A1BD2DFE846
:1032D00002F00F081A1A1A1A1A130B058878586088
:1032E0003DE00122191D31E04888000A986036E06F
:1032F000012203F1080129E001221A618A791946A5
:1033000000F054F82BE000F046F8022070BD4D7834
:10331000062D04D00A2D1CD00B2D20D11DE04B888A
:103320002225B5EB132F07D1CA88562A00D9562279
:10333000D0F81C120C6808E02125B5EB132F04D13E
:10334000CA88084C092A00D90922214600F048F809
:1033500005E0012203F10C01F8E78878D86000202D
:1033600070BD00001801002010B5D0F8142252687A
:103370009047002010BD134610B50A46002100F00A
:103380005BFA002010BD134610B50A46002100F07C
:10339000D9FA002010BD10B50446802100F0BBFA18
:1033A0002046BDE81040002100F0B5BA10B5032357
:1033B000C0F80821C0F8F431C0F80C2113460A46C1
:1033C000002100F039FA002010BD10B505210023BE
:1033D000C0F8F4111A46194600F02EFA002010BD6C
:1033E00010B502238261C0F8F431C26113460A4667
:1033F000002100F0A7FA002010BD10B50421002321
:10340000C0F8F4111A46194600F09CFA002010BDCD
:1034100010B50A46024903A000F0E3F8004810BDC9
:103420003C010020437573746F6D2048494420436C
:103430006F6E6669670000001220088000487047C0
:103440002400002010B50A46024903A000F0C9F884
:10345000004810BD3C010020437573746F6D204817
:10346000494420496E74657266616365000000001E
:1034700004200880004870472000002010B50A464C
:10348000024903A000F0ADF8004810BD3C01002047
:1034900053544D6963726F656C656374726F6E69C6
:1034A0006373000010B50A46024903A000F099F8C2
:1034B000004810BD3C01002053696D756C61746F4C
:1034C0007220436F6E74726F6C73000010B50A4601
:1034D000024903A000F085F8004810BD3C0100201F
:1034E000303030303030303030303141000000008A
:1034F000F8B5044648880D46010A082954D2DFE889
:1035000001F05304091753534951D4F81012207C89
:103510000A6819E0207C02260028D4F8140205D09D
:10352000C16A68468847014646704AE0816AF8E702
:10353000C1B2062926D2DFE801F0030A0F14191ED2
:10354000D4F81012207C4A686946904718E0D4F8F5
:103550001012207C8A68F7E7D4F81012207CCA6821
:10356000F2E7D4F81012207C0A69EDE7D4F81012C3
:10357000207C4A69E8E7D4F81012207C8A69E3E7E6
:1035800001461EE0C1B2D4F814026A46836B20469D
:103590009847F5E7207C38B9D4F81402416B6846A7
:1035A0008847EDE7207C20B129462046FFF7F3FE4F
:1035B000F8BDD4F81402016B68468847014607201D
:1035C0004870BDF800000028F2D0EA88002AEFD049
:1035D000824200D90246ADF800202046FFF700FFE6
:1035E000F8BD70B5002300281DD00446002502E078
:1035F0006D1CEDB2641C2678002EF9D1022404EB78
:1036000045041480CC545B1C0322CA5400245B1C68
:1036100006E0CA545B1CDAB28C54521CD3B2401C74
:103620000278002AF5D170BD10B580B1D0F81432FF
:1036300013B10023C0F8143209B1C0F810120121EF
:1036400080F8FC11027000F0A9F8002010BD0220E3
:1036500010BD10B5D0F82002FEF7BDF8002010BD57
:1036600010B5D0F82002FEF794F8002010BD2DE927
:10367000F0411746044641B1D4F8140242698AB3B6
:1036800094F8FC01032842D043E0D4F8F41100255B
:1036900004F11400022933D1D0E902639E4207D914
:1036A000F31A83609AB239462046FFF76CFE12E0A7
:1036B0004068B0FBF3F103FB1101A1B9984212D3AA
:1036C000D4F8F81188420ED2002211462046FFF7A6
:1036D0005AFEC4F8F85100231A461946204600F055
:1036E000ABF80DE012E0D4F81402C16829B194F8E7
:1036F000FC01032801D1204688472046FFF765FEDC
:1037000094F80002012804D184F8005201E0204618
:1037100090470020BDE8F08170B51546044641B1E0
:10372000D4F8140282693AB394F8FC01032824D037
:1037300025E0D4F8F41104F5827003291FD1D0E9F3
:1037400002218A420BD9531A83600846834200D370
:1037500003469AB229462046FFF70DFE0FE0D4F843
:103760001402016929B194F8FC01032801D1204613
:1037700088472046FFF741FE01E0204690470020A1
:1037800070BD0020704710B5012180F8FC11D0F801
:103790001422017952689047002010BD10B50178BD
:1037A00041BB15490222C1F8B403C0F820124FF002
:1037B000A0400860042048600020C1E90320C1E95E
:1037C0000502C86108624862C86208630846FEF7DD
:1037D000E7FA08B1FDF7FFF880210748FDF798FFE9
:1037E000402200210448FDF797FF80220121024872
:1037F000FDF792FF002010BDB40500200A0601F07D
:103800007F01D0F82002C1EBC10100EB810002D59D
:1038100090F83A00704790F8DE017047002070473A
:103820000020704710B51C461346D0F820022246EF
:10383000FDF7F9FF002010BD10B5D0F82002FEF70B
:103840001DF8002010BD70B500220446402311462B
:10385000FFF7E8FF40252B46002280212046C4F8D0
:103860001051FFF7DFFF0120256284F8FC01D4F836
:10387000180228B1D4F814022179426820469047F2
:10388000002070BD90F8FD1180F8FC1100207047F9
:1038900010B590F8FC11032904D1D0F81412C969AD
:1038A00001B18847002010BD01740020704710B599
:1038B000D0F82002FEF71EFB002010BD70B50446B4
:1038C00000F50270054600F044F80120C4F8F40148
:1038D000B4F80E02C4F8F80194F8080210F01F01C1
:1038E0000AD001290DD0022910D000F08001204615
:1038F00000F011F8002070BD2946204600F08FF836
:10390000F8E72946204600F071F9F3E729462046FA
:1039100000F0FEF8EEE710B5D0F82002FDF7DDFF6D
:10392000002010BD10B5D0F82002FEF7FCFA0020F0
:1039300010BD90F8FC1180F8FD11042180F8FC11F5
:103940000020704710B5D0F82002FDF7F6FF0020E8
:1039500010BD0A7802704A7842708A78CB7802EB00
:10396000032242800A794B7902EB032282808A7912
:10397000C97902EB0121C18070470246002011B1D4
:10398000C2F8141270470220704710B5D0F8142204
:1039900002241AB11268904700B90024204610BDD5
:1039A00070B50E461A4D897804462970012928D829
:1039B00094F8FC01022802D0032822D105E099B135
:1039C0000320616084F8FC0109E091B160688842DD
:1039D0000AD0C1B22046FFF7C7FC297861602046B3
:1039E000FFF7D3FF02280CD02046BDE87040FFF758
:1039F00004BD022084F8FC0120466160FFF7B4FC9E
:103A0000F2E731462046BDE87040FFF7C4BC000035
:103A1000AD00002010B5FFF785FF002010BD2DE997
:103A2000F04100264B78012532460A2B43D2DFE8CD
:103A300003F03C584251420805422A27FFF758FD3F
:103A400063E004468888C8B9C888B8B9887800F0A7
:103A50007F0794F8FC01032810D084F8FE713946E2
:103A60002046FFF724FF2046FFF7C7FC1FB10220C6
:103A700084F8FC0149E084F8FC5146E020461AE055
:103A8000FFF78EFF41E0CB88012B14D190F8FC3179
:103A9000022B02D0032B0ED104E08260012200F140
:103AA000080114E00122011D11E090F8FC21022A16
:103AB00004D0032A02D0FFF76EFC26E0C560D0F8E0
:103AC000041209B10321C160022200F10C01FFF7C9
:103AD00087FC1AE004464888012816D1C4F804522D
:103AE0000BE0044690F8FC01022801D00328C5D160
:103AF0004888012809D1C4F80422D4F81402826845
:103B0000204690472046FFF778FC3046BDE8F0811C
:103B100070B50D460446287800260979C0F3411097
:103B2000012806D06878A0B301281FD003283FD110
:103B300007E0D4F814022946826820469047002006
:103B400070BD94F8FC01022817D003282CD1688896
:103B500028B921B1802902D02046FFF7DCFED4F835
:103B60001402294682682046904713E094F8FC012D
:103B7000022802D0032817D103E0C9B180291BD144
:103B800016E06888A0B9480604D02046FFF761FD1A
:103B9000E5E703E02046FFF730FC09E094F8FC017C
:103BA000022807D003280BD029462046FFF7F3FB55
:103BB000304670BD4806FBD02046FFF7ACFEF7E765
:103BC000080601F07F0004EB001501D5143501E073
:103BD00005F582752046FFF711FE00B1012028602F
:103BE000022229462046FFF7FBFBE1E770B50546B8
:103BF00090F8FC010C4603280DD1207901280AD841
:103C0000D5F81402826828469047E08830B92846E3
:103C1000FFF7F3FB02E02846FFF7BDFB002070BD75
:103C200030B54C781D4B01220D78AA40012CD0F8FC
:103C30001C4818D044EA0242C0F81C280A7800EB5D
:103C40004210D0F8002B12040BD4D0F8002B0C89B2
:103C5000C4F30A042243C97843EA81410A43C0F805
:103C6000002B002030BD92B21443C0F81C480C78E1
:103C700000EB4410D0F800291204F2D4D0F8002947
:103C80000D89C5F30A052A43C978890441EA84519C
:103C90000A431A43C0F80029E3E70000008000103F
:103CA000D0F800196FF30A01C0F80019D0F808180D
:103CB000C1F34101022905D1D0F8001941F00301F7
:103CC000C0F80019D0F8041841F48071C0F8041845
:103CD0000020704770B50446049D06990D9801298F
:103CE0000CD0E06840F04000E060204600F024F88E
:103CF0004FF48030A063012D16D019E0A16B21F4A0
:103D00008031A163E1680B4A1140E160E16821F470
:103D10004011E160012803D1E06840F48010E060C8
:103D2000204600F009F8E6E7A06840F02000A06017
:103D3000002070BDBFFFBDFF01220C4902E0521CF4
:103D40008A420BD80369002BF9DA026942F00102BA
:103D50000261012204E0521C8A4201D9032070470B
:103D60000369DB07F7D1002070470000400D030016
:103D700030B54D7801220C7802FA04F3012DD0F809
:103D80003C4816D024EA0343C0F83C38D0F81C382D
:103D90000C78A24023EA0242C0F81C28097800EB04
:103DA0004110D0F8001B21F40041C0F8001B002096
:103DB00030BD9BB29C43C0F83C48D0F81C380C780E
:103DC000A24092B29343C0F81C38097800EB41102E
:103DD000D0F8001921F40041C0F80019E7E710B548
:103DE000D0F8041821F00201C0F804180320FDF7F0
:103DF000E1F9002010BD10B5D0F8041841F002011F
:103E0000C0F804180320FDF7D5F9002010BD00000C
:103E10002DE9F0470E460446DDE90A0A0025DDF8E3
:103E20003C80089FA16B41F40021A163B8F1000F11
:103E300003D1A16B41F40011A1634FF00009C4F854
:103E4000009ED4F80018C4F80018012804D0D4F853
:103E5000000840F0030004E0D4F800080BB140F083
:103E60000100C4F800081021204600F0BDFA2046E9
:103E700000F0AAFA4846C4F81098C4F814984FF015
:103E8000FF31C4F81818C4F81C984FF0904CFF2369
:103E900010E000BF04EB4511D1F80029002A02DA36
:103EA000C1F800C901E0C1F80009C1F81009C1F862
:103EB00008396D1CAE42EDD800210FE004EB411231
:103EC000D2F8005B002D02DAC2F800CB01E0C2F8A4
:103ED000000BC2F8100BC2F8083B491C8E42EDD80B
:103EE000D4F8101821F48071C4F81018012F0AD1E9
:103EF0001449C4F83018D4F83018134A1143C4F8E0
:103F00003018D4F83018A0616FF0804060611FB99C
:103F1000A06940F01000A061A0690C490843A061AD
:103F2000BAF1000F03D0A06940F00800A061B8F119
:103F3000010F03D1A06906490843A0610020BDE834
:103F4000F0870000000180000300010000383C8081
:103F500004000040816821F0010181600020704769
:103F600030B54D784D4C0B7800EB4313012D28D024
:103F7000D3F8105B6FF31205C3F8105B0B7800EBFE
:103F80004313D3F8105B2540C3F8105B4B690BB1AA
:103F90008B684B610B7800EB4313D3F8104B44F460
:103FA0000024C3F8104B0B7800EB4313D3F8104BED
:103FB0008D68C5F312052C43C3F8104B012A5CD061
:103FC00061E04D69002DD3F810593BD06FF3120515
:103FD000C3F810590B7800EB4313D3F81059254060
:103FE000C3F810594C698B689C4200D94B610B781F
:103FF00000EB4313D3F8104944F40024C3F81049EC
:104000000B7800EB4313D3F810494D69C5F3120543
:1040100054EA0504C3F81049012A27D04A693AB185
:10402000D0F834280C780123A3401A43C0F8342870
:10403000097800EB4110D0F8001941F00441C0F8B4
:10404000001929E02540C3F810590B7800EB431301
:10405000D3F8104944F40024C3F810490B7800EB5E
:104060004313D3F810496FF31204D3E70B7800EB36
:1040700043130A69C3F81429DAE70B7800EB4313FA
:10408000CA68C3F8142B097800EB4110D0F8001B64
:1040900041F00441C0F8001B002030BDFFFF07E0E5
:1040A0000023C0F8103BD0F8103B43F40023C0F8C5
:1040B000103BD0F8103B43F01803C0F8103BD0F889
:1040C000103B43F0C043C0F8103B012905D1C0F8B4
:1040D000142B4FF08021C0F8001B002070474B7854
:1040E0000A7800EB4212012B0BD0D2F8003B23F4EC
:1040F0000013C2F8003BCA78032A17D0022A15D051
:104100001DE0D2F8003923F40013C2F80039CA7850
:10411000032A01D0022A12D1097800EB4110D0F80D
:10412000001941F08051C0F8001908E0097800EB4F
:104130004110D0F8001B41F08051C0F8001B002056
:1041400070474B780A7800EB4212012B14D0D2F85A
:10415000003B002B05DBD2F8003B23F08043C2F884
:10416000003B097800EB4110D0F8001B41F400112E
:10417000C0F8001B00207047D2F80039002B05DB87
:10418000D2F8003923F08043C2F80039097800EBF7
:104190004110D0F8001941F40011C0F80019E9E706
:1041A00078B54E786FF06045834C0B7800EB431385
:1041B000012E2FD0D3F8106B6FF31206C3F8106BDB
:1041C0000B7800EB4313D3F8106B2640C3F8106B49
:1041D0004B69002B7DD08C6823445B1EB3FBF4F34A
:1041E0009BB20C7800EB4414D4F8106B05EAC3457D
:1041F0002E43C4F8106B0C7800EB4414D4F8105B19
:104200008E685E43C6F312031D43C4F8105B012A97
:1042100073D0B2E04E6966B3D3F810696FF312063B
:10422000C3F810690B7800EB4313D3F810692640EC
:10423000C3F810694C698B681C44641EB4FBF3F32B
:1042400005EAC3440B7800EB4313D3F810592C4311
:10425000C3F810490B7800EB4313D3F810494D69AC
:10426000C5F312052C43C3F81049CB78012B16D0A7
:1042700027E0D3F810592540C3F810590B7800EB0C
:104280004313D3F8104944F40024C3F810490B78C1
:1042900000EB4313D3F810496FF312040FE00B78CF
:1042A00000EB4313D3F8104924F0C044C3F810497D
:1042B0000B7800EB4313D3F8104944F00054C3F8D3
:1042C0001049012A12D0CB78012B17D04B692BB3A0
:1042D00000E037E0D0F834380D780124AC402343B7
:1042E000C0F83438CB78012B08D017E00C7800EBFD
:1042F00044140B69C4F81439F4E738E0D0F80838EE
:10430000DB050B7800EB4313D3F8004902D444F0EB
:10431000005401E044F08054C3F800490B7800EBEE
:104320004313D3F8004944F00444C3F80049CB7860
:10433000012B3ED100928A8A93B20A78C96800F0B4
:10434000E7F836E00B7800EB4313D3F8104B8D6899
:10435000C5F312052C43C3F8104B0B7800EB431345
:10436000D3F8104B44F40024C3F8104B4FE70B78FC
:1043700000EB4313CA68C3F8142BCA78012A0FD183
:10438000D0F80828D2050A7800EB4212D2F8003B98
:1043900002D443F0005301E043F08053C2F8003BE5
:1043A000097800EB4110D0F8001B41F00441C0F83F
:1043B000001B002078BD0000FFFF07E0816841F08E
:1043C0000101816000207047002110220261054A2E
:1043D000491C914201D9032070470369DB06F7D4D9
:1043E00000207047400D03000022202343EA811182
:1043F00001610549521C8A4201D9032070470369B3
:104400009B06F7D400207047400D03000021D0F830
:10441000082812F0060F15D0D0F80828C2F3410280
:10442000012A0CD0D0F80828C2F34102032A06D092
:10443000D0F80808C0F34100022802D002E00321AE
:1044400000E0022108467047406900F00100704713
:10445000D0F81818D0F81C08084080B27047D0F87F
:104460001818D0F81C080840000C7047D0F8103815
:10447000D0F83428CA4002F0010243EAC21200EB2D
:104480004110D0F808091040704700EB4111D1F8F5
:10449000081BD0F81408084070474169806908403B
:1044A000704710B503460020D21C920803F58053D4
:1044B00003E01C6841F8044B401C9042F9D30846C5
:1044C00010BD10B5C26822F0C042C260012901D0FF
:1044D00021B107E0C16841F0005102E0C16841F03C
:1044E0008041C1603220FCF765FE002010BDD0F88D
:1044F000002822F4FE62C0F80028D0F800284FF40B
:10450000FE6303EA01110A43C0F800280020704747
:1045100030B50024039D6DB9DB1C9B0800EB023015
:1045200000F5805004E000BF51F8042B0260641CC9
:104530009C42F9D3002030BDFEE702E008C8121FFC
:1045400008C1002AFAD170477047002001E001C17C
:10455000121F002AFBD1704710B5002821D0114B43
:104560000022001F196803E0814203D80A46496807
:104570000029F9D152B11368841A9C4204D1006811
:1045800018441060104602E0506000E0186039B135
:1045900002680B1A934203D10B681A4402604968FF
:1045A000416010BD3401002008B5FDF719F8FEF791
:1045B0002BFCFEF755FA21480024016841F48001E4
:1045C00001600068224600F48000009021463820F7
:1045D000FDF76CF83820FDF75DF8FEF791FBFEF76C
:1045E000D9F918481649184D0160C0E901540E1454
:1045F000C0E9034644618461C4610462FCF72EFF94
:1046000000B1FEE70F48114954300160C0E9015480
:10461000C0E9034644618461C4610462FCF71EFF83
:1046200000B1FEE7FEF788FAFEF7A6FAFEF7C4FA35
:10463000FEF710FB00F0C2FAFEE70000303802403F
:104640000054004084030020A08601000058004070
:10465000F0B50B30154D20F007010024144A0FE08F
:1046600003688B420BD38B4205D95E1A4318476807
:10467000C3E9006700E04368136002C004E0021D64
:1046800010680028ECD12046002802D1286808B123
:104690000020F0BD064A07481060074A121A22F0AF
:1046A0000702C0E9002401202860D7E73801002074
:1046B00034010020AC0C0020A80E002018B50B4CD3
:1046C000B4F84C000090A38EA28BA188002000F0CB
:1046D0007BFBB4F8AC000090B4F89430B4F87C20C4
:1046E000B4F86410052000F06FFB18BDB00B00207B
:1046F00010B51446FCF7A6FE0121054AA14000288A
:10470000506802D00143516010BD8843506010BD15
:10471000A00000202DE9F05F00252DED088BAB46B1
:10472000DFF850929FED948B9FED959B09F1200847
:104730004FF4007A05EB450708EBC704E07806461E
:10474000401CFBF7E8FE41EC1B0B59F82500FBF77A
:10475000E2FE41EC1A0B3046FBF7DDFE94ED040B54
:1047600053EC102BFBF7E5FD53EC1A2BFBF73AFD4E
:1047700053EC1B2BFBF74FFE41EC1A0B84ED04AB03
:1047800018F8370000287DD0E088FBF7C4FE53EC12
:104790001A2BFBF7FFFE04D8607878B140F2FF30A7
:1047A000DBE06089FBF7B7FE94ED041B53EC112BA3
:1047B000FBF7D8FE05D860780028EFD0A4F804B045
:1047C000CFE0A07800287CD02089FBF7A4FE94EDF0
:1047D000041B53EC112BFBF7DDFE2AD26078E68830
:1047E00000282089A0EB060011D0FBF783FE41ECE6
:1047F0001A0B3046FBF78FFE94ED040B53EC102B95
:10480000FBF794FD41EC100B53EC182B79E0FBF710
:1048100071FE41EC1A0B3046FBF77DFE94ED041B54
:1048200053EC112BFBF782FD41EC100B53EC182BD2
:1048300081E02089FBF76FFE94ED041B53EC112BF4
:10484000FBF790FE43D26078268900286089A0EBB0
:10485000060020D0FBF74EFE41EC1A0B3046FBF76A
:104860005AFE94ED041B53EC112BFBF75FFD53EC48
:10487000182BFBF75EFD53EC1A2BFBF7CCFD53EC2A
:10488000182B00E06BE0FBF7ADFC00BF53EC192BDD
:10489000FBF74CFD57E0FBF72DFE41EC1A0B3046C1
:1048A000FBF739FE94ED041B53EC112BFBF73EFD97
:1048B00053EC182BFBF73DFD53EC1A2BFBF7ABFD2C
:1048C00000E006E053EC182BFBF78CFC3BE0504675
:1048D0003CE06078E68800286089A0EB060019D0EB
:1048E000FBF708FE41EC1A0B3046FBF714FE94ED83
:1048F000041B53EC112BFBF719FD53EC192B41EC66
:10490000100B51EC100BFBF714FD53EC1A2BFBF7BB
:1049100082FDBBE7FBF7EEFD41EC1A0B3046FBF7DF
:10492000FAFD94ED041B53EC112BFBF7FFFC53EC49
:10493000192B41EC100B51EC100BFBF7FAFC53EC6C
:104940001A2BFBF768FDFBF7F3FD80B2A1880A1A6A
:10495000521C022A05D908444008A08001E0A4F8AE
:1049600004A06D1CEDB2082DFFF4E4AEBDEC088B85
:10497000BDE8F09F900B0020000000000000804088
:104980000000000000F88F4038B51B4C00EB4002DF
:10499000A4F1C001E07311F83230002B034602D0BD
:1049A00043F0080301E023F0080301EBC205E373C1
:1049B00069780029D9B202D041F0100101E021F05C
:1049C0001001E173A9780029E17B02D041F02001B8
:1049D00001E021F02001E1736989009106492B89EA
:1049E000E039EA8831F8200081B2102000F0ECF9BB
:1049F000E878607538BD0000700C002010B500200C
:104A00002D4A2E4901E0082808D202EB40131B78FA
:104A100003B1012300EB400401F83430A0F1080396
:104A2000082B0AD202EB40131B7803B1012300EBE1
:104A3000400401EBC40404F8BF3CA0F11003082BB0
:104A40000AD200EB400402EB401301EBC404A4F5CE
:104A500080541B7884F8833EA0F11803082B0AD2F7
:104A600002EB40131C8800EB400301EBC303A3F5EA
:104A70008053A3F8C64DA0F12003082B0AD202EB05
:104A800040131C8800EB400301EBC303A3F58053E4
:104A9000A3F8084D28280AD302EB40131C8800EB2A
:104AA000400301EBC303A3F58053A3F84A4C401C19
:104AB000C0B23028A7D310BD00000208B00B002000
:104AC00070B5FCF7CBFB3A49B32008600221052002
:104AD000FBF782FF0024374E374D01E0082C09DA3E
:104AE00004EB440005EB441156F83020002302206B
:104AF000FCF776FBA4F1080008280BD204EB440075
:104B000006EBC00005EB441150F8BF2C0023022037
:104B1000FCF766FBA4F1100008280DD204EB44005A
:104B200006EBC000A0F5805005EB4411D0F8832EB1
:104B300000230220FCF754FBA4F1180008280DD232
:104B400004EB440006EBC000A0F5805005EB4411D7
:104B5000D0F8C62D00230220FCF742FBA4F1200070
:104B600008280DD204EB440006EBC000A0F58050ED
:104B700005EB4411D0F8082D00230220FCF730FB90
:104B8000282C0DDB04EB440006EBC000A0F58050A0
:104B900005EB4411D0F84A2C00230220FCF720FB3F
:104BA000641C302C9ADBBDE87040FCF70FBB0000A2
:104BB0000C3C0240B00B00200000020810B5082297
:104BC00006490748FCF700F9044C0120E034207046
:104BD000FFF714FF0820A07310BD0000900B002009
:104BE0003C030020F0B500210727012216480D469E
:104BF00040F2FE335FEA422401EB4106491C00F813
:104C0000362000EBC606C9B27570B270738134816C
:104C1000F280F7700229EFD302210F2701EB410642
:104C2000491C00F8365000EBC606C9B27570B57065
:104C300073813481F280F7700829EFD34FF4257126
:104C4000A0F85010F0BD0000B00B00200548064948
:104C500040688872020ACA72020C0A73000E487316
:104C600070470000A0000020700C002010B5074C19
:104C700000224FF480412046FFF73AFD20460122F2
:104C8000BDE81040D103FFF733BD0000000402402F
:104C9000364830B4D0F81812354A00200B5C135453
:104CA000401CC0B20228F9D31078527800F00701F6
:104CB000C0F3C20300F0C00042EA80022D48082B76
:104CC0000AD2DFE803F0040B11170909091D01EBF3
:104CD000410100EBC100C28030BC704701EB4101D3
:104CE00000EBC1000281F7E701EB410100EBC100DD
:104CF0004281F1E701EB410100EBC100C270EBE73B
:104D0000062AE9D2DFE802F0030F1B272B2E01EB66
:104D1000410110F83120012A01D0012200E00022D7
:104D200000F83120D8E701EB410100EBC1004178E8
:104D3000012901D0012100E000214170CCE701EB05
:104D4000410100EBC1008178012901D0012100E07F
:104D500000218170C0E7064808380170BCE730BC0C
:104D6000FFF7AEBE30BCFFF73DBF00006C0900206E
:104D7000A8000020B00B002010B5FFF7CBFC0F4CB3
:104D800014216078B0FBF1F201FB120018B9FFF7B3
:104D90006DFFFFF75BFFFFF791FC2078FFF7F4FD55
:104DA000162207490748FEF770FA6078401CC0B227
:104DB0006070FA2801D30020607010BDA0000020B0
:104DC000700C00206C09002030B5094D039C29545B
:104DD000090A284441EA82014170910941EA03111C
:104DE0008170190941EA8411C170A108017130BDB7
:104DF000700C002000000000010203040102030403
:104E00000607080900061016000610162C4E0008AA
:104E1000000000203C01000004070008104F0008BB
:104E20003C0100206C1100004A450008111324F4D5
:104E30001339341B0871041A7D041AA5041ACD0411
:104E40001A11041A45041704030904120132021648
:104E5000408304505726020102030110080501098E
:104E600004A101A1101209300931093209330934B2
:104E700009350936093715101126FF03750A9508FB
:104E80008102050919012920151F250195207501A9
:104E9000101C0109390E1307351809463B0165142A
:104EA000750495153906200A03750895078103C016
:104EB000C02238142017091B0813041A1B04011000
:104EC0001331321408C3311B08B108411AF50C1A0A
:104ED00093041A9F04C11A192069045A252C140935
:104EE000022913010125C03209042B0203121421E7
:104EF0001101140122561607058103161720070514
:104F0000010302AA201A31130A0632021A40F7D10D
:040000050800018965
:00000001FF
